:100000000C9434000C943E000C943E000C943E0082
:100010000C943E000C943E000C943E000C943E0068
:100020000C943E000C943E000C943E000C943E0058
:100030000C943E000C943E000C943E000C943E0048
:100040000C943E000C943E000C943E000C943E0038
:100050000C943E000C943E000C943E000C943E0028
:100060000C943E000C943E0011241FBECFEFD8E04C
:10007000DEBFCDBF0E9465000C9487000C94000089
:10008000EAE7F0E0808187608083ACE7B0E08C91A4
:10009000806C8C938081806880830895ECE7F0E029
:1000A0009081987F908390818770982B9083EAE766
:1000B000F0E080818064808380917A0086FDFCCFAF
:1000C000809178009091790008950E94400087B156
:1000D0008C6087B987E00E944E009695879596952B
:1000E0008795882339F088B1846088B988B1877F83
:1000F00088B906C088B18B7F88B988B1877F88B9F5
:100100008FE39CE90197F1F700C00000E3CFF8947A
:02011000FFCF1F
:00000001FF
